{
  "contractName": "Calculator",
  "abi": [
    {
      "inputs": [],
      "name": "result",
      "outputs": [
        {
          "internalType": "uint256",
          "name": "",
          "type": "uint256"
        }
      ],
      "stateMutability": "view",
      "type": "function",
      "constant": true
    },
    {
      "inputs": [
        {
          "internalType": "uint256",
          "name": "num1",
          "type": "uint256"
        },
        {
          "internalType": "uint256",
          "name": "num2",
          "type": "uint256"
        }
      ],
      "name": "addNum",
      "outputs": [
        {
          "internalType": "uint256",
          "name": "",
          "type": "uint256"
        }
      ],
      "stateMutability": "nonpayable",
      "type": "function"
    },
    {
      "inputs": [
        {
          "internalType": "uint256",
          "name": "num1",
          "type": "uint256"
        },
        {
          "internalType": "uint256",
          "name": "num2",
          "type": "uint256"
        }
      ],
      "name": "subNum",
      "outputs": [
        {
          "internalType": "uint256",
          "name": "",
          "type": "uint256"
        }
      ],
      "stateMutability": "pure",
      "type": "function",
      "constant": true
    },
    {
      "inputs": [
        {
          "internalType": "uint256",
          "name": "num1",
          "type": "uint256"
        },
        {
          "internalType": "uint256",
          "name": "num2",
          "type": "uint256"
        }
      ],
      "name": "mulNum",
      "outputs": [
        {
          "internalType": "uint256",
          "name": "",
          "type": "uint256"
        }
      ],
      "stateMutability": "pure",
      "type": "function",
      "constant": true
    },
    {
      "inputs": [
        {
          "internalType": "uint256",
          "name": "num1",
          "type": "uint256"
        },
        {
          "internalType": "uint256",
          "name": "num2",
          "type": "uint256"
        }
      ],
      "name": "divNum",
      "outputs": [
        {
          "internalType": "uint256",
          "name": "",
          "type": "uint256"
        }
      ],
      "stateMutability": "pure",
      "type": "function",
      "constant": true
    }
  ],
  "bytecode": "0x608060405234801561001057600080fd5b506103be806100206000396000f3fe608060405234801561001057600080fd5b50600436106100575760003560e01c8063653721471461005c5780636f827c3e1461007a5780637eaddeaa146100aa578063e4ada89c146100da578063fb596d071461010a575b600080fd5b61006461013a565b60405161007191906101c3565b60405180910390f35b610094600480360381019061008f919061020f565b610140565b6040516100a191906101c3565b60405180910390f35b6100c460048036038101906100bf919061020f565b610156565b6040516100d191906101c3565b60405180910390f35b6100f460048036038101906100ef919061020f565b61016c565b60405161010191906101c3565b60405180910390f35b610124600480360381019061011f919061020f565b610194565b60405161013191906101c3565b60405180910390f35b60005481565b6000818361014e919061027e565b905092915050565b6000818361016491906102e1565b905092915050565b6000818361017a9190610312565b600081905550818361018c9190610312565b905092915050565b600081836101a29190610346565b905092915050565b6000819050919050565b6101bd816101aa565b82525050565b60006020820190506101d860008301846101b4565b92915050565b600080fd5b6101ec816101aa565b81146101f757600080fd5b50565b600081359050610209816101e3565b92915050565b60008060408385031215610226576102256101de565b5b6000610234858286016101fa565b9250506020610245858286016101fa565b9150509250929050565b7f4e487b7100000000000000000000000000000000000000000000000000000000600052601160045260246000fd5b6000610289826101aa565b9150610294836101aa565b92508282039050818111156102ac576102ab61024f565b5b92915050565b7f4e487b7100000000000000000000000000000000000000000000000000000000600052601260045260246000fd5b60006102ec826101aa565b91506102f7836101aa565b925082610307576103066102b2565b5b828204905092915050565b600061031d826101aa565b9150610328836101aa565b92508282019050808211156103405761033f61024f565b5b92915050565b6000610351826101aa565b915061035c836101aa565b925082820261036a816101aa565b915082820484148315176103815761038061024f565b5b509291505056fea26469706673582212208095d903bde9447294e5958712a931d0c5a1f0918a9c997c331fc95f05a2762c64736f6c63430008110033",
  "immutableReferences": {},
  "source": "// SPDX-License-Identifier: MIT\r\npragma solidity ^0.8.0;\r\n\r\ncontract Calculator {\r\n\r\n    uint public result;\r\n\r\n    function addNum(uint num1, uint num2) public returns (uint){\r\n        result = num1 + num2;       \r\n        return num1+num2;\r\n    }\r\n\r\n    function subNum(uint num1, uint num2) public pure returns (uint){\r\n        return num1-num2;\r\n    }\r\n\r\n    function mulNum(uint num1, uint num2) public pure returns (uint){\r\n        return num1*num2;\r\n    }\r\n\r\n    function divNum(uint num1, uint num2) public pure returns (uint){\r\n        return num1/num2;\r\n    }\r\n}",
  "sourcePath": "/home/shubham/demoApp/contracts/Calculator.sol",
  "compiler": {
    "name": "solc",
    "version": "0.8.17+commit.8df45f5f.Emscripten.clang"
  },
  "schemaVersion": "3.4.10",
  "updatedAt": "2022-10-03T15:05:16.155Z",
  "networkType": "ethereum",
  "devdoc": {
    "kind": "dev",
    "methods": {},
    "version": 1
  },
  "userdoc": {
    "kind": "user",
    "methods": {},
    "version": 1
  }
}