{
  "contractName": "Calculator",
  "abi": [
    {
      "anonymous": false,
      "inputs": [
        {
          "indexed": false,
          "internalType": "string",
          "name": "msg",
          "type": "string"
        },
        {
          "indexed": false,
          "internalType": "uint256",
          "name": "value",
          "type": "uint256"
        }
      ],
      "name": "succ",
      "type": "event"
    },
    {
      "inputs": [],
      "name": "result",
      "outputs": [
        {
          "internalType": "uint256",
          "name": "",
          "type": "uint256"
        }
      ],
      "stateMutability": "view",
      "type": "function",
      "constant": true
    },
    {
      "inputs": [
        {
          "internalType": "uint256",
          "name": "num1",
          "type": "uint256"
        },
        {
          "internalType": "uint256",
          "name": "num2",
          "type": "uint256"
        }
      ],
      "name": "addNum",
      "outputs": [],
      "stateMutability": "nonpayable",
      "type": "function"
    },
    {
      "inputs": [
        {
          "internalType": "uint256",
          "name": "num1",
          "type": "uint256"
        },
        {
          "internalType": "uint256",
          "name": "num2",
          "type": "uint256"
        }
      ],
      "name": "subNum",
      "outputs": [
        {
          "internalType": "uint256",
          "name": "",
          "type": "uint256"
        }
      ],
      "stateMutability": "pure",
      "type": "function",
      "constant": true
    },
    {
      "inputs": [
        {
          "internalType": "uint256",
          "name": "num1",
          "type": "uint256"
        },
        {
          "internalType": "uint256",
          "name": "num2",
          "type": "uint256"
        }
      ],
      "name": "mulNum",
      "outputs": [
        {
          "internalType": "uint256",
          "name": "",
          "type": "uint256"
        }
      ],
      "stateMutability": "pure",
      "type": "function",
      "constant": true
    },
    {
      "inputs": [
        {
          "internalType": "uint256",
          "name": "num1",
          "type": "uint256"
        },
        {
          "internalType": "uint256",
          "name": "num2",
          "type": "uint256"
        }
      ],
      "name": "divNum",
      "outputs": [
        {
          "internalType": "uint256",
          "name": "",
          "type": "uint256"
        }
      ],
      "stateMutability": "pure",
      "type": "function",
      "constant": true
    }
  ],
  "bytecode": "0x608060405234801561001057600080fd5b5061045c806100206000396000f3fe608060405234801561001057600080fd5b50600436106100575760003560e01c8063653721471461005c5780636f827c3e1461007a5780637eaddeaa146100aa578063e4ada89c146100da578063fb596d07146100f6575b600080fd5b610064610126565b60405161007191906101d6565b60405180910390f35b610094600480360381019061008f9190610222565b61012c565b6040516100a191906101d6565b60405180910390f35b6100c460048036038101906100bf9190610222565b610142565b6040516100d191906101d6565b60405180910390f35b6100f460048036038101906100ef9190610222565b610158565b005b610110600480360381019061010b9190610222565b6101a7565b60405161011d91906101d6565b60405180910390f35b60005481565b6000818361013a9190610291565b905092915050565b6000818361015091906102f4565b905092915050565b80826101649190610325565b6000819055507fbd338b55f9e58e0c3598dcae7172fe00278710b7b0dc860559d3c15d8888482960005460405161019b91906103b6565b60405180910390a15050565b600081836101b591906103e4565b905092915050565b6000819050919050565b6101d0816101bd565b82525050565b60006020820190506101eb60008301846101c7565b92915050565b600080fd5b6101ff816101bd565b811461020a57600080fd5b50565b60008135905061021c816101f6565b92915050565b60008060408385031215610239576102386101f1565b5b60006102478582860161020d565b92505060206102588582860161020d565b9150509250929050565b7f4e487b7100000000000000000000000000000000000000000000000000000000600052601160045260246000fd5b600061029c826101bd565b91506102a7836101bd565b92508282039050818111156102bf576102be610262565b5b92915050565b7f4e487b7100000000000000000000000000000000000000000000000000000000600052601260045260246000fd5b60006102ff826101bd565b915061030a836101bd565b92508261031a576103196102c5565b5b828204905092915050565b6000610330826101bd565b915061033b836101bd565b925082820190508082111561035357610352610262565b5b92915050565b600082825260208201905092915050565b7f646f6e6500000000000000000000000000000000000000000000000000000000600082015250565b60006103a0600483610359565b91506103ab8261036a565b602082019050919050565b600060408201905081810360008301526103cf81610393565b90506103de60208301846101c7565b92915050565b60006103ef826101bd565b91506103fa836101bd565b9250828202610408816101bd565b9150828204841483151761041f5761041e610262565b5b509291505056fea2646970667358221220199fcd4ca2958265e90ace01e39a56c7127809e16f83c8a5619089cfd94010da64736f6c63430008110033",
  "immutableReferences": {},
  "source": "// SPDX-License-Identifier: MIT\r\npragma solidity ^0.8.0;\r\n\r\ncontract Calculator {\r\n\r\n    uint public result;\r\n    event succ(string msg, uint value);\r\n\r\n    function addNum(uint num1, uint num2) public {\r\n        result = num1 + num2;     \r\n        emit succ(\"done\", result);  \r\n        // return num1+num2;\r\n    }\r\n\r\n    function subNum(uint num1, uint num2) public pure returns (uint){\r\n        return num1-num2;\r\n    }\r\n\r\n    function mulNum(uint num1, uint num2) public pure returns (uint){\r\n        return num1*num2;\r\n    }\r\n\r\n    function divNum(uint num1, uint num2) public pure returns (uint){\r\n        return num1/num2;\r\n    }\r\n}",
  "sourcePath": "/home/shubham/project/demoApp/contracts/Calculator.sol",
  "compiler": {
    "name": "solc",
    "version": "0.8.17+commit.8df45f5f.Emscripten.clang"
  },
  "schemaVersion": "3.4.10",
  "updatedAt": "2022-10-16T14:51:10.523Z",
  "networkType": "ethereum",
  "devdoc": {
    "kind": "dev",
    "methods": {},
    "version": 1
  },
  "userdoc": {
    "kind": "user",
    "methods": {},
    "version": 1
  }
}